{
  "_format": "hh-sol-artifact-1",
  "contractName": "LockerV5",
  "sourceName": "contracts/LockerV5.sol",
  "abi": [
    {
      "anonymous": false,
      "inputs": [
        {
          "indexed": false,
          "internalType": "address",
          "name": "user",
          "type": "address"
        },
        {
          "indexed": true,
          "internalType": "string",
          "name": "tokenType",
          "type": "string"
        },
        {
          "indexed": true,
          "internalType": "uint256",
          "name": "tokenAddress",
          "type": "uint256"
        },
        {
          "indexed": false,
          "internalType": "uint256",
          "name": "tokenAmount",
          "type": "uint256"
        }
      ],
      "name": "TokenLocked",
      "type": "event"
    },
    {
      "inputs": [
        {
          "internalType": "uint256",
          "name": "_tokenType",
          "type": "uint256"
        },
        {
          "internalType": "address",
          "name": "_tokenAddress",
          "type": "address"
        },
        {
          "internalType": "uint256",
          "name": "_tokenId",
          "type": "uint256"
        },
        {
          "internalType": "uint256",
          "name": "_tokenAmount",
          "type": "uint256"
        },
        {
          "internalType": "uint256",
          "name": "_unlockTime",
          "type": "uint256"
        }
      ],
      "name": "createLocker",
      "outputs": [],
      "stateMutability": "payable",
      "type": "function"
    },
    {
      "inputs": [
        {
          "internalType": "uint256",
          "name": "_lockerId",
          "type": "uint256"
        }
      ],
      "name": "destroyLocker",
      "outputs": [],
      "stateMutability": "nonpayable",
      "type": "function"
    },
    {
      "inputs": [
        {
          "internalType": "uint256",
          "name": "_lockerId",
          "type": "uint256"
        }
      ],
      "name": "getLockerInfo",
      "outputs": [
        {
          "components": [
            {
              "internalType": "address payable",
              "name": "tokenOwner",
              "type": "address"
            },
            {
              "internalType": "uint256",
              "name": "tokenType",
              "type": "uint256"
            },
            {
              "internalType": "address",
              "name": "tokenAddress",
              "type": "address"
            },
            {
              "internalType": "uint256",
              "name": "tokenId",
              "type": "uint256"
            },
            {
              "internalType": "uint256",
              "name": "tokenAmount",
              "type": "uint256"
            },
            {
              "internalType": "uint256",
              "name": "lockTime",
              "type": "uint256"
            },
            {
              "internalType": "uint256",
              "name": "unlockTime",
              "type": "uint256"
            },
            {
              "internalType": "bool",
              "name": "isWithdrawn",
              "type": "bool"
            }
          ],
          "internalType": "struct LockerV5.LockerInfo",
          "name": "",
          "type": "tuple"
        }
      ],
      "stateMutability": "view",
      "type": "function"
    },
    {
      "inputs": [
        {
          "internalType": "address",
          "name": "_user",
          "type": "address"
        },
        {
          "internalType": "uint256",
          "name": "_fromIdx",
          "type": "uint256"
        },
        {
          "internalType": "uint256",
          "name": "_limit",
          "type": "uint256"
        }
      ],
      "name": "lockersOfUser",
      "outputs": [
        {
          "internalType": "uint256[]",
          "name": "",
          "type": "uint256[]"
        }
      ],
      "stateMutability": "view",
      "type": "function"
    },
    {
      "inputs": [
        {
          "internalType": "address",
          "name": "_lockerOwner",
          "type": "address"
        }
      ],
      "name": "noOfLocksOf",
      "outputs": [
        {
          "internalType": "uint256",
          "name": "",
          "type": "uint256"
        }
      ],
      "stateMutability": "view",
      "type": "function"
    },
    {
      "inputs": [
        {
          "internalType": "address",
          "name": "",
          "type": "address"
        },
        {
          "internalType": "address",
          "name": "",
          "type": "address"
        },
        {
          "internalType": "uint256[]",
          "name": "",
          "type": "uint256[]"
        },
        {
          "internalType": "uint256[]",
          "name": "",
          "type": "uint256[]"
        },
        {
          "internalType": "bytes",
          "name": "",
          "type": "bytes"
        }
      ],
      "name": "onERC1155BatchReceived",
      "outputs": [
        {
          "internalType": "bytes4",
          "name": "",
          "type": "bytes4"
        }
      ],
      "stateMutability": "nonpayable",
      "type": "function"
    },
    {
      "inputs": [
        {
          "internalType": "address",
          "name": "",
          "type": "address"
        },
        {
          "internalType": "address",
          "name": "",
          "type": "address"
        },
        {
          "internalType": "uint256",
          "name": "",
          "type": "uint256"
        },
        {
          "internalType": "uint256",
          "name": "",
          "type": "uint256"
        },
        {
          "internalType": "bytes",
          "name": "",
          "type": "bytes"
        }
      ],
      "name": "onERC1155Received",
      "outputs": [
        {
          "internalType": "bytes4",
          "name": "",
          "type": "bytes4"
        }
      ],
      "stateMutability": "nonpayable",
      "type": "function"
    },
    {
      "inputs": [
        {
          "internalType": "bytes4",
          "name": "interfaceId",
          "type": "bytes4"
        }
      ],
      "name": "supportsInterface",
      "outputs": [
        {
          "internalType": "bool",
          "name": "",
          "type": "bool"
        }
      ],
      "stateMutability": "view",
      "type": "function"
    }
  ],
  "bytecode": "0x608060405234801561001057600080fd5b50611f8a806100206000396000f3fe60806040526004361061007b5760003560e01c8063adaff5e01161004e578063adaff5e01461013f578063bc197c811461017c578063f23a6e61146101b9578063f711d383146101f65761007b565b806301ffc9a71461008057806343b7b17e146100bd578063493819c5146100d957806365ebdf9114610116575b600080fd5b34801561008c57600080fd5b506100a760048036038101906100a29190611448565b610233565b6040516100b4919061191a565b60405180910390f35b6100d760048036038101906100d291906114a2565b6102ad565b005b3480156100e557600080fd5b5061010060048036038101906100fb9190611475565b61070b565b60405161010d9190611a10565b60405180910390f35b34801561012257600080fd5b5061013d60048036038101906101389190611475565b610832565b005b34801561014b57600080fd5b5061016660048036038101906101619190611235565b610e7e565b6040516101739190611a2c565b60405180910390f35b34801561018857600080fd5b506101a3600480360381019061019e9190611262565b610eca565b6040516101b09190611935565b60405180910390f35b3480156101c557600080fd5b506101e060048036038101906101db9190611331565b610edf565b6040516101ed9190611935565b60405180910390f35b34801561020257600080fd5b5061021d600480360381019061021891906113c8565b610ef4565b60405161022a91906118f8565b60405180910390f35b60007f4e2312e0000000000000000000000000000000000000000000000000000000007bffffffffffffffffffffffffffffffffffffffffffffffffffffffff1916827bffffffffffffffffffffffffffffffffffffffffffffffffffffffff191614806102a657506102a582610ff6565b5b9050919050565b600082116102f0576040517f08c379a00000000000000000000000000000000000000000000000000000000081526004016102e7906119b0565b60405180910390fd5b6000339050600186141561034557823414610340576040517f08c379a000000000000000000000000000000000000000000000000000000000815260040161033790611950565b60405180910390fd5b610524565b60028614156103e3578473ffffffffffffffffffffffffffffffffffffffff166323b872dd8230866040518463ffffffff1660e01b815260040161038b93929190611869565b602060405180830381600087803b1580156103a557600080fd5b505af11580156103b9573d6000803e3d6000fd5b505050506040513d601f19601f820116820180604052508101906103dd919061141b565b50610523565b6003861415610460578473ffffffffffffffffffffffffffffffffffffffff166323b872dd8230876040518463ffffffff1660e01b815260040161042993929190611869565b600060405180830381600087803b15801561044357600080fd5b505af1158015610457573d6000803e3d6000fd5b50505050610522565b60048614156104df578473ffffffffffffffffffffffffffffffffffffffff1663f242432a823087876040518563ffffffff1660e01b81526004016104a894939291906118a0565b600060405180830381600087803b1580156104c257600080fd5b505af11580156104d6573d6000803e3d6000fd5b50505050610521565b6000610520576040517f08c379a000000000000000000000000000000000000000000000000000000000815260040161051790611990565b60405180910390fd5b5b5b5b5b60008081548092919061053690611caa565b9190505550600160008273ffffffffffffffffffffffffffffffffffffffff1673ffffffffffffffffffffffffffffffffffffffff16815260200190815260200160002060005490806001815401808255809150506001900390600052602060002001600090919091909150556040518061010001604052808273ffffffffffffffffffffffffffffffffffffffff1681526020018781526020018673ffffffffffffffffffffffffffffffffffffffff16815260200185815260200184815260200142815260200183815260200160001515815250600260008054815260200190815260200160002060008201518160000160006101000a81548173ffffffffffffffffffffffffffffffffffffffff021916908373ffffffffffffffffffffffffffffffffffffffff1602179055506020820151816001015560408201518160020160006101000a81548173ffffffffffffffffffffffffffffffffffffffff021916908373ffffffffffffffffffffffffffffffffffffffff160217905550606082015181600301556080820151816004015560a0820151816005015560c0820151816006015560e08201518160070160006101000a81548160ff021916908315150217905550905050505050505050565b610713611060565b60026000838152602001908152602001600020604051806101000160405290816000820160009054906101000a900473ffffffffffffffffffffffffffffffffffffffff1673ffffffffffffffffffffffffffffffffffffffff1673ffffffffffffffffffffffffffffffffffffffff168152602001600182015481526020016002820160009054906101000a900473ffffffffffffffffffffffffffffffffffffffff1673ffffffffffffffffffffffffffffffffffffffff1673ffffffffffffffffffffffffffffffffffffffff168152602001600382015481526020016004820154815260200160058201548152602001600682015481526020016007820160009054906101000a900460ff1615151515815250509050919050565b3373ffffffffffffffffffffffffffffffffffffffff166002600083815260200190815260200160002060000160009054906101000a900473ffffffffffffffffffffffffffffffffffffffff1673ffffffffffffffffffffffffffffffffffffffff16146108d6576040517f08c379a00000000000000000000000000000000000000000000000000000000081526004016108cd90611970565b60405180910390fd5b426002600083815260200190815260200160002060060154111561092f576040517f08c379a0000000000000000000000000000000000000000000000000000000008152600401610926906119d0565b60405180910390fd5b600015156002600083815260200190815260200160002060070160009054906101000a900460ff16151514610999576040517f08c379a0000000000000000000000000000000000000000000000000000000008152600401610990906119f0565b60405180910390fd5b60006002600083815260200190815260200160002060010154905060006002600084815260200190815260200160002060000160009054906101000a900473ffffffffffffffffffffffffffffffffffffffff16905060006002600085815260200190815260200160002060020160009054906101000a900473ffffffffffffffffffffffffffffffffffffffff1690506000600260008681526020019081526020016000206003015490506000600260008781526020019081526020016000206004015490506001851415610ab5578373ffffffffffffffffffffffffffffffffffffffff166108fc829081150290604051600060405180830381858888f19350505050158015610aaf573d6000803e3d6000fd5b50610c4c565b6002851415610b51578273ffffffffffffffffffffffffffffffffffffffff1663a9059cbb85836040518363ffffffff1660e01b8152600401610af99291906117b1565b602060405180830381600087803b158015610b1357600080fd5b505af1158015610b27573d6000803e3d6000fd5b505050506040513d601f19601f82011682018060405250810190610b4b919061141b565b50610c4b565b6003851415610bce578273ffffffffffffffffffffffffffffffffffffffff166323b872dd3086856040518463ffffffff1660e01b8152600401610b97939291906117da565b600060405180830381600087803b158015610bb157600080fd5b505af1158015610bc5573d6000803e3d6000fd5b50505050610c4a565b6004851415610c49578273ffffffffffffffffffffffffffffffffffffffff1663f242432a308685856040518563ffffffff1660e01b8152600401610c169493929190611811565b600060405180830381600087803b158015610c3057600080fd5b505af1158015610c44573d6000803e3d6000fd5b505050505b5b5b5b6000600160008673ffffffffffffffffffffffffffffffffffffffff1673ffffffffffffffffffffffffffffffffffffffff16815260200190815260200160002080549050905060005b81811015610de05787600160008873ffffffffffffffffffffffffffffffffffffffff1673ffffffffffffffffffffffffffffffffffffffff1681526020019081526020016000208281548110610cf057610cef611d51565b5b90600052602060002001541415610dcd57600160008773ffffffffffffffffffffffffffffffffffffffff1673ffffffffffffffffffffffffffffffffffffffff168152602001908152602001600020600183610d4d9190611b7a565b81548110610d5e57610d5d611d51565b5b9060005260206000200154600160008873ffffffffffffffffffffffffffffffffffffffff1673ffffffffffffffffffffffffffffffffffffffff1681526020019081526020016000208281548110610dba57610db9611d51565b5b9060005260206000200181905550610de0565b8080610dd890611caa565b915050610c96565b50600160008673ffffffffffffffffffffffffffffffffffffffff1673ffffffffffffffffffffffffffffffffffffffff168152602001908152602001600020805480610e3057610e2f611d22565b5b6001900381819060005260206000200160009055905560016002600089815260200190815260200160002060070160006101000a81548160ff02191690831515021790555050505050505050565b6000600160008373ffffffffffffffffffffffffffffffffffffffff1673ffffffffffffffffffffffffffffffffffffffff168152602001908152602001600020805490509050919050565b600063bc197c8160e01b905095945050505050565b600063f23a6e6160e01b905095945050505050565b606060008267ffffffffffffffff811115610f1257610f11611d80565b5b604051908082528060200260200182016040528015610f405781602001602082028036833780820191505090505b50905060008490505b8385610f559190611b24565b811015610fea57600160008773ffffffffffffffffffffffffffffffffffffffff1673ffffffffffffffffffffffffffffffffffffffff1681526020019081526020016000208181548110610fad57610fac611d51565b5b9060005260206000200154828281518110610fcb57610fca611d51565b5b6020026020010181815250508080610fe290611caa565b915050610f49565b50809150509392505050565b60007f01ffc9a7000000000000000000000000000000000000000000000000000000007bffffffffffffffffffffffffffffffffffffffffffffffffffffffff1916827bffffffffffffffffffffffffffffffffffffffffffffffffffffffff1916149050919050565b604051806101000160405280600073ffffffffffffffffffffffffffffffffffffffff16815260200160008152602001600073ffffffffffffffffffffffffffffffffffffffff168152602001600081526020016000815260200160008152602001600081526020016000151581525090565b60006110e66110e184611a6c565b611a47565b9050808382526020820190508285602086028201111561110957611108611db4565b5b60005b85811015611139578161111f8882611220565b84526020840193506020830192505060018101905061110c565b5050509392505050565b600061115661115184611a98565b611a47565b90508281526020810184848401111561117257611171611db9565b5b61117d848285611c6a565b509392505050565b60008135905061119481611ef8565b92915050565b600082601f8301126111af576111ae611daf565b5b81356111bf8482602086016110d3565b91505092915050565b6000815190506111d781611f0f565b92915050565b6000813590506111ec81611f26565b92915050565b600082601f83011261120757611206611daf565b5b8135611217848260208601611143565b91505092915050565b60008135905061122f81611f3d565b92915050565b60006020828403121561124b5761124a611dc3565b5b600061125984828501611185565b91505092915050565b600080600080600060a0868803121561127e5761127d611dc3565b5b600061128c88828901611185565b955050602061129d88828901611185565b945050604086013567ffffffffffffffff8111156112be576112bd611dbe565b5b6112ca8882890161119a565b935050606086013567ffffffffffffffff8111156112eb576112ea611dbe565b5b6112f78882890161119a565b925050608086013567ffffffffffffffff81111561131857611317611dbe565b5b611324888289016111f2565b9150509295509295909350565b600080600080600060a0868803121561134d5761134c611dc3565b5b600061135b88828901611185565b955050602061136c88828901611185565b945050604061137d88828901611220565b935050606061138e88828901611220565b925050608086013567ffffffffffffffff8111156113af576113ae611dbe565b5b6113bb888289016111f2565b9150509295509295909350565b6000806000606084860312156113e1576113e0611dc3565b5b60006113ef86828701611185565b935050602061140086828701611220565b925050604061141186828701611220565b9150509250925092565b60006020828403121561143157611430611dc3565b5b600061143f848285016111c8565b91505092915050565b60006020828403121561145e5761145d611dc3565b5b600061146c848285016111dd565b91505092915050565b60006020828403121561148b5761148a611dc3565b5b600061149984828501611220565b91505092915050565b600080600080600060a086880312156114be576114bd611dc3565b5b60006114cc88828901611220565b95505060206114dd88828901611185565b94505060406114ee88828901611220565b93505060606114ff88828901611220565b925050608061151088828901611220565b9150509295509295909350565b60006115298383611793565b60208301905092915050565b61153e81611c34565b82525050565b61154d81611bc0565b82525050565b61155c81611bae565b82525050565b61156b81611bae565b82525050565b600061157c82611ad9565b6115868185611af1565b935061159183611ac9565b8060005b838110156115c25781516115a9888261151d565b97506115b483611ae4565b925050600181019050611595565b5085935050505092915050565b6115d881611bd2565b82525050565b6115e781611bd2565b82525050565b6115f681611bde565b82525050565b6000611609600283611b13565b915061161482611dd9565b602082019050919050565b600061162c601783611b13565b915061163782611e02565b602082019050919050565b600061164f600283611b13565b915061165a82611e2b565b602082019050919050565b6000611672600283611b02565b915061167d82611e54565b602082019050919050565b6000611695600283611b13565b91506116a082611e7d565b602082019050919050565b60006116b8601883611b13565b91506116c382611ea6565b602082019050919050565b60006116db601c83611b13565b91506116e682611ecf565b602082019050919050565b610100820160008201516117086000850182611544565b50602082015161171b6020850182611793565b50604082015161172e6040850182611553565b5060608201516117416060850182611793565b5060808201516117546080850182611793565b5060a082015161176760a0850182611793565b5060c082015161177a60c0850182611793565b5060e082015161178d60e08501826115cf565b50505050565b61179c81611c2a565b82525050565b6117ab81611c2a565b82525050565b60006040820190506117c66000830185611535565b6117d360208301846117a2565b9392505050565b60006060820190506117ef6000830186611562565b6117fc6020830185611535565b61180960408301846117a2565b949350505050565b600060a0820190506118266000830187611562565b6118336020830186611535565b61184060408301856117a2565b61184d60608301846117a2565b818103608083015261185e81611665565b905095945050505050565b600060608201905061187e6000830186611562565b61188b6020830185611562565b61189860408301846117a2565b949350505050565b600060a0820190506118b56000830187611562565b6118c26020830186611562565b6118cf60408301856117a2565b6118dc60608301846117a2565b81810360808301526118ed81611665565b905095945050505050565b600060208201905081810360008301526119128184611571565b905092915050565b600060208201905061192f60008301846115de565b92915050565b600060208201905061194a60008301846115ed565b92915050565b60006020820190508181036000830152611969816115fc565b9050919050565b600060208201905081810360008301526119898161161f565b9050919050565b600060208201905081810360008301526119a981611642565b9050919050565b600060208201905081810360008301526119c981611688565b9050919050565b600060208201905081810360008301526119e9816116ab565b9050919050565b60006020820190508181036000830152611a09816116ce565b9050919050565b600061010082019050611a2660008301846116f1565b92915050565b6000602082019050611a4160008301846117a2565b92915050565b6000611a51611a62565b9050611a5d8282611c79565b919050565b6000604051905090565b600067ffffffffffffffff821115611a8757611a86611d80565b5b602082029050602081019050919050565b600067ffffffffffffffff821115611ab357611ab2611d80565b5b611abc82611dc8565b9050602081019050919050565b6000819050602082019050919050565b600081519050919050565b6000602082019050919050565b600082825260208201905092915050565b600082825260208201905092915050565b600082825260208201905092915050565b6000611b2f82611c2a565b9150611b3a83611c2a565b9250827fffffffffffffffffffffffffffffffffffffffffffffffffffffffffffffffff03821115611b6f57611b6e611cf3565b5b828201905092915050565b6000611b8582611c2a565b9150611b9083611c2a565b925082821015611ba357611ba2611cf3565b5b828203905092915050565b6000611bb982611c0a565b9050919050565b6000611bcb82611c0a565b9050919050565b60008115159050919050565b60007fffffffff0000000000000000000000000000000000000000000000000000000082169050919050565b600073ffffffffffffffffffffffffffffffffffffffff82169050919050565b6000819050919050565b6000611c3f82611c46565b9050919050565b6000611c5182611c58565b9050919050565b6000611c6382611c0a565b9050919050565b82818337600083830152505050565b611c8282611dc8565b810181811067ffffffffffffffff82111715611ca157611ca0611d80565b5b80604052505050565b6000611cb582611c2a565b91507fffffffffffffffffffffffffffffffffffffffffffffffffffffffffffffffff821415611ce857611ce7611cf3565b5b600182019050919050565b7f4e487b7100000000000000000000000000000000000000000000000000000000600052601160045260246000fd5b7f4e487b7100000000000000000000000000000000000000000000000000000000600052603160045260246000fd5b7f4e487b7100000000000000000000000000000000000000000000000000000000600052603260045260246000fd5b7f4e487b7100000000000000000000000000000000000000000000000000000000600052604160045260246000fd5b600080fd5b600080fd5b600080fd5b600080fd5b600080fd5b6000601f19601f8301169050919050565b7f3036000000000000000000000000000000000000000000000000000000000000600082015250565b7f596f7520617265206e6f7420746f6b656e206f776e6572000000000000000000600082015250565b7f3031000000000000000000000000000000000000000000000000000000000000600082015250565b7f3078000000000000000000000000000000000000000000000000000000000000600082015250565b7f3035000000000000000000000000000000000000000000000000000000000000600082015250565b7f556e6c6f636b2074696d6520697320696e206675747572650000000000000000600082015250565b7f546f6b656e732061726520616c72656164792077697468647261776e00000000600082015250565b611f0181611bae565b8114611f0c57600080fd5b50565b611f1881611bd2565b8114611f2357600080fd5b50565b611f2f81611bde565b8114611f3a57600080fd5b50565b611f4681611c2a565b8114611f5157600080fd5b5056fea264697066735822122079ab454580447807e19dee5b1f005522d77219c757b7e661126aa3c100dd17d664736f6c63430008070033",
  "linkReferences": {},
  "deployedLinkReferences": {}
}